:100000000C9434000C9451000C9451000C94510049
:100010000C9451000C9451000C9451000C9451001C
:100020000C9451000C9451000C9451000C9451000C
:100030000C9451000C9451000C9451000C945100FC
:100040000C9451000C9451000C9451000C945100EC
:100050000C9451000C9451000C9451000C945100DC
:100060000C9451000C94510011241FBECFEFD8E026
:10007000DEBFCDBF1CE0A0E0B1E0ECEFFEE002C0CF
:1000800005900D92A43DB107D9F72CE0A4EDBCE09A
:1000900001C01D92A83DB207E1F70E945F020C94D7
:1000A0007C070C9400001092C50087E68093C40082
:1000B00088E08093C10086E08093C200089590910B
:1000C000C00095FFFCCF8093C6000895CF93DF93C7
:1000D000EC018991811103C0DF91CF9108950E94B5
:1000E0005F00F7CFEF92FF921F93CF93DF93CDB7CF
:1000F000DEB7AE970FB6F894DEBF0FBECDBF19B115
:1001000016951695169580910001181791F1FE012C
:10011000B99624E030E05E2F6F2F812F90E0DC0154
:10012000022E02C0B595A7950A94E2F740E3A0FD20
:1001300041E341932150310990F71EA69F938F937D
:100140009F938F936F935F9389E69CE09F938F9328
:10015000CE0101967C019F938F930E94A404C70156
:100160000E946600109300010FB6F894DEBF0FBE28
:10017000CDBFAE960FB6F894DEBF0FBECDBFDF91F8
:10018000CF911F91FF90EF90089580E480937C00C1
:1001900087E880937A00089590917C00987F87701B
:1001A000982B90937C0080917A00806480937A00F1
:1001B00080917A0086FDFCCF809178009091790043
:1001C000089584E00E94CC009C01AAECB3E00E9458
:1001D0006B032FEF33E040E050E00E942A03DA0186
:1001E000C9014E96A11DB11D089587B18F6087B9D1
:1001F00088B1807F88B984B18F6084B985B1807FF0
:1002000085B9089587B1807F87B988B18F6088B933
:1002100084B1807F84B985B18F6085B9089530E05D
:1002200020E02817390709F40895EFE9FFE0319736
:10023000F1F700C000002F5F3F4FF3CF880F991FE9
:10024000880F991F0197F1F708958F929F92AF92AF
:10025000BF92CF92DF92EF92FF920F931F93CF93B3
:10026000DF939C01CB012115310571F4DF91CF9112
:100270001F910F91FF90EF90DF90CF90BF90AF90C4
:100280009F908F900C940F018B0150E040E060E252
:1002900071EA87E090E00E942A036901E901980170
:1002A000A8EEB3E00E946B03CC0CDD1C960150E07D
:1002B00040E00E942A0349015A01C12CD12C760149
:1002C000C814D904EA04FB0469F4DF91CF911F91AB
:1002D0000F91FF90EF90DF90CF90BF90AF909F90E5
:1002E0008F9008952C9ACE010E941E012C98CE0169
:1002F0000E941E018FEFC81AD80AE80AF80AE0CF58
:10030000CF93DF93D82FC0E0CD1303C0DF91CF91FF
:1003100008952C9A82E390E00E940F012C9882E3CA
:1003200090E00E940F01CF5FEFCF4F925F926F92EC
:100330007F92AF92BF92CF92DF92EF92FF920F9394
:100340001F93CF93DF93EC01B12CA12C088119816D
:100350000F3F100779F4DF91CF911F910F91FF901C
:10036000EF90DF90CF90BF90AF907F906F905F90B5
:100370004F9008956A817B812091D60C3091D70CE3
:1003800077FF2BC0F501E61BF70BBF01660F771F48
:10039000C9010E9416032B01C901BF010E94160367
:1003A000460E571E052C000C66087708C301B201E3
:1003B0000E94A90326E636E646E65FE30E940F04A4
:1003C0000E947A036B01C8010E942501C2018C19A9
:1003D0009D090E940F012496B9CFC9010E941603FE
:1003E0002B01770F66087708E1CFEF92FF920F930A
:1003F0001F93CF93DF938C01D0E0C0E08AE0E82E1A
:10040000F12CC017D10739F4DF91CF911F910F91D3
:10041000FF90EF9008958FE99FE00197F1F700C0FA
:100420000000CE01B7010E940203892B11F40E9443
:1004300072004A991DC09FEF20E782E09150204052
:100440008040E1F700C000004A9912C09091D50C9D
:1004500081E0911180E08093D50C4A9B0FC09FEF03
:1004600020E782E0915020408040E1F700C000008A
:100470008091D50C811109C02196C3CF8FE99FE0EF
:100480000197F1F700C00000E8CF0E9472004A997E
:10049000EFCF9FEF20E782E0915020408040E1F7CE
:1004A00000C000004A99E4CF1092D50C4A99D7CFEA
:1004B0008FE99FE00197F1F700C00000F7CF0E949D
:1004C00053000E94C500249A2C9852985A9A3D983D
:1004D000459A8CE79CE00E946600209101013091D2
:1004E0000201032E000C440B550B60EA7CE880E00F
:1004F00090E00E944C033093D70C2093D60CD0E0B0
:10050000FF24F3940E94720026B191E0822F807242
:1005100025FF90E0D91709F46FC0882349F181E0E5
:100520000E94800181E99CE00E946600D1E00E9467
:10053000020189B1869586958695853109F05FC05F
:100540008091D40C81110AC08AEB9CE00E94660065
:1005500087E49CE00E949501F092D40C2FEF81EE8D
:1005600094E0215080409040E1F700C00000CACFE5
:1005700082E00E94800189EA9CE00E946600D0E04F
:100580000E94F500C0E00E94E1008C0188B1807FEC
:100590008C2B88B9C8010E94F50185B1807F8C2B16
:1005A00085B9C8010E94F5013599ACCFCF5FC03144
:1005B00051F7C3E00E94E1008C0188B18F6088B9D7
:1005C00085B18F6085B9C8010E94F50188B1807F2F
:1005D00088B985B1807F85B9C8010E94F501C150F5
:1005E00049F788B1807F88B985B1807F85B90E943D
:1005F000E1000E94F50186CF811199CFC1CF109201
:10060000D40CACCFAA1BBB1B51E107C0AA1FBB1F58
:10061000A617B70710F0A61BB70B881F991F5A958E
:10062000A9F780959095BC01CD01089597FB072E01
:1006300016F4009407D077FD09D00E94020307FC4E
:1006400005D03EF4909581959F4F089570956195E2
:100650007F4F0895A1E21A2EAA1BBB1BFD010DC0FE
:10066000AA1FBB1FEE1FFF1FA217B307E407F50762
:1006700020F0A21BB30BE40BF50B661F771F881F3E
:10068000991F1A9469F760957095809590959B01D4
:10069000AC01BD01CF010895052E97FB1EF4009417
:1006A0000E94630357FD07D00E942A0307FC03D072
:1006B0004EF40C94630350954095309521953F4F2F
:1006C0004F4F5F4F089590958095709561957F4F3E
:1006D0008F4F9F4F0895A29FB001B39FC001A39F6A
:1006E000700D811D1124911DB29F700D811D11246B
:1006F000911D08950E94EE0388F09F5798F0B92F3E
:100700009927B751B0F0E1F0660F771F881F991F46
:100710001AF0BA95C9F714C0B13091F00E940804DC
:10072000B1E008950C940804672F782F8827B85FEC
:1007300039F0B93FCCF3869577956795B395D9F79E
:100740003EF490958095709561957F4F8F4F9F4FA8
:100750000895E89409C097FB3EF4909580957095B4
:1007600061957F4F8F4F9F4F9923A9F0F92F96E9FD
:10077000BB279395F695879577956795B795F11172
:10078000F8CFFAF4BB0F11F460FF1BC06F5F7F4F0F
:100790008F4F9F4F16C0882311F096E911C0772321
:1007A00021F09EE8872F762F05C0662371F096E82A
:1007B000862F70E060E02AF09A95660F771F881FF9
:1007C000DAF7880F9695879597F9089557FD905811
:1007D000440F551F59F05F3F71F04795880F97FB05
:1007E000991F61F09F3F79F08795089512161306BF
:1007F0001406551FF2CF4695F1DF08C016161706EE
:100800001806991FF1CF8695710561050894089522
:10081000E894BB2766277727CB0197F908950E94B4
:1008200022040C9493040E94850438F00E948C04E6
:1008300020F0952311F00C947C040C948204112474
:100840000C9409040E94E60370F3959FC1F3950F81
:1008500050E0551F629FF001729FBB27F00DB11D44
:10086000639FAA27F00DB11DAA1F649F6627B00DD4
:10087000A11D661F829F2227B00DA11D621F739FBD
:10088000B00DA11D621F839FA00D611D221F749FCB
:100890003327A00D611D231F849F600D211D822F12
:1008A000762F6A2F11249F5750409AF0F1F0882339
:1008B0004AF0EE0FFF1FBB1F661F771F881F915066
:1008C0005040A9F79E3F510580F00C947C040C9495
:1008D00009045F3FE4F3983ED4F3869577956795D6
:1008E000B795F795E7959F5FC1F7FE2B880F911D90
:1008F0009695879597F9089597F99F6780E870E036
:1009000060E008959FEF80EC089500240A94161685
:10091000170618060906089500240A9412161306ED
:10092000140605060895092E0394000C11F488237B
:1009300052F0BB0F40F4BF2B11F460FF04C06F5F97
:100940007F4F8F4F9F4F0895AEE0B0E0EAEAF4E0AA
:100950000C9453070D891E8986E08C831A830983C2
:100960008FEF9FE79E838D83AE01475E5F4F6F8958
:10097000788DCE0101960E94C7042F813885020F21
:10098000131FF80110822E96E4E00C946F07ABE081
:10099000B0E0EDECF4E00C9445077C013B018A01EA
:1009A000FC0117821682838181FFC8C1CE010196A6
:1009B0005C01F7019381F30193FD859193FF819190
:1009C0003F01882309F453C1853239F493FD8591A1
:1009D00093FF81913F01853229F4B70190E00E9495
:1009E000B706E7CF912C212C312CFFE1F31538F01D
:1009F0008B3211F190F4803209F1833229F137FC06
:100A00003CC020ED280F2A3050F536FE20C08AE089
:100A1000989E200D1124922E06C08D3291F08033C5
:100A200071F7689430F8F30193FD859193FF8191FC
:100A30003F018111DACF21C0689431F8689432F80F
:100A4000F2CF689433F8EFCF689434F8ECCFEAE053
:100A50002E9E200D1124222E689435F8E4CF8E327C
:100A600029F436FC04C1689436F8DDCF8C3619F4CD
:100A7000689437F8D8CF8836B1F2982F9F7D955477
:100A80009330E0F08336A1F18337C1F1833509F06B
:100A900063C02801F2E04F0E511CF801C080D180E4
:100AA000692D70E036FC02C06FEF7FEFC6010E9437
:100AB000A1064C01689437F882010AC00C5F1F4FF1
:100AC000FFE3F98388248394912C6501E89437F837
:100AD00033FE2DC0522C8114910471F5552009F478
:100AE00068CFB70180E290E00E94B7065A94F6CF33
:100AF000F801808189830E5F1F4FE4CF2801F2E067
:100B00004F0E511CF801C080D180692D70E036FC79
:100B100002C06FEF7FEFC6010E94AC064C0182015C
:100B2000D5CFB70180E290E00E94B7062A9428143E
:100B3000190409F0B0F7CECFF60137FC859137FEE6
:100B400081916F01B70190E00E94B70651105A944D
:100B5000F1E08F1A9108BFCF843619F0893609F079
:100B600077C0F80137FE6BC060817181828193810B
:100B70000C5F1F4FF32DFF763F2E97FF09C0909516
:100B80008095709561957F4F8F4F9F4F689437F890
:100B90002AE030E0A5010E94E706C82ECA188C2C76
:100BA000432C36FE0CC0E89440F8C91440F434FEDF
:100BB00005C032FC03C0F32DFE7E4F2E892C44FE6F
:100BC00095C0FE01EC0DF11D8081803309F087C0D6
:100BD000242D297E422E842D8870582E43FC95C0EA
:100BE00040FE8FC09C2C821418F42C0C922C981868
:100BF00044FE91C0B70180E390E00E94B70642FE38
:100C000009C088E790E041FE02C088E590E0B701A6
:100C10000E94B706C91408F48AC0CA94D12C9FEF69
:100C2000C91AD90ACA0CDB1CF60182916F01B701FF
:100C300090E00E94B706AC14BD04B1F74FCF6081BD
:100C40007181072E000C880B990B0E5F1F4F92CFFE
:100C5000D32CE894D4F82AE030E0853739F1232DFD
:100C6000297FD22E8F3601F148F48835A9F0F7019B
:100C7000868197812B96E2E10C946107803749F0D9
:100C80008837A9F7D4FE02C06894D2F820E130E09A
:100C90000DC06894D4F8F6CF34FE03C0822F86606E
:100CA000D82E20E132E002C028E030E0F801D7FE83
:100CB0000FC060817181828193810C5F1F4FA501FC
:100CC0000E94E706C82ECA183D2CE89437F867CF73
:100CD0006081718190E080E00E5F1F4FF0CF42FC99
:100CE00002C0839478CF8394839475CF842D8678C3
:100CF00009F471CFF6CFB70180E290E00E94B70609
:100D000083948214C0F3512C73CF522C5818821440
:100D100008F46ECFF8CF842D867809F47BCF8BE270
:100D200041FE80E247FC8DE2B70190E071CFB70150
:100D300080E390E00E94B7069A946CCF8FEF9FEF0C
:100D400099CFFC010590615070400110D8F7809553
:100D500090958E0F9F1F0895FC0161507040019087
:100D60000110D8F7809590958E0F9F1F08950F93CF
:100D70001F93CF93DF93182F092FEB018B8181FDF8
:100D800009C01FEF0FEF812F902FDF91CF911F919F
:100D90000F91089582FF14C02E813F818C819D8127
:100DA000281739073CF4E881F981CF01019699832E
:100DB000888310838E819F8101969F838E83E3CFEA
:100DC000E885F985812F0995892BA1F3DACFFA01FE
:100DD000AA27283051F1203181F1E8946F936E7F7A
:100DE0006E5F7F4F8F4F9F4FAF4FB1E03ED0B4E06B
:100DF0003CD0670F781F891F9A1FA11D680F791FAC
:100E00008A1F911DA11D6A0F711D811D911DA11DBC
:100E100020D009F468943F912AE0269F11243019CC
:100E2000305D3193DEF6CF010895462F4770405D67
:100E30004193B3E00FD0C9F7F6CF462F4F70405D16
:100E40004A3318F0495D31FD4052419302D0A9F771
:100E5000EACFB4E0A6959795879577956795BA956B
:100E6000C9F700976105710508959B01AC010A2E31
:100E700006945795479537952795BA95C9F7620F08
:100E8000731F841F951FA01D08952F923F924F92AC
:100E90005F926F927F928F929F92AF92BF92CF920A
:100EA000DF92EF92FF920F931F93CF93DF93CDB713
:100EB000DEB7CA1BDB0B0FB6F894DEBF0FBECDBF8B
:100EC00009942A88398848885F846E847D848C845C
:100ED0009B84AA84B984C884DF80EE80FD800C8165
:100EE0001B81AA81B981CE0FD11D0FB6F894DEBF48
:0C0EF0000FBECDBFED010895F894FFCFB8
:100EFC00FF5A00260108005D010800B8010800BA7D
:100F0C00020800700308004B020800B80108005DDD
:100F1C00010800C4000800EE0108004B0208001094
:100F2C00030400EE01080026010800C400080006B6
:100F3C000108004A01080088010800EE010800932E
:100F4C000208000B020800880108004A010800068C
:100F5C000108004A0108008801080006010800EE9B
:100F6C0001080006010800880108004A0108002653
:100F7C000108005D010800B8010800BA0208007001
:100F8C000308004B020800B80108005D010800C40A
:100F9C00000800EE0108004B02080010030400EEEC
:100FAC0001080026010800C4000800060108004AD8
:100FBC0001080088010800EE010800930208000BEC
:100FCC00020800880108004A010800060108004ACE
:100FDC000108008801080006010800EE010800065F
:100FEC00010800880108004A010800FFFF060108FB
:100FFC00004A010800D20108000B02080093020805
:10100C00000B020800D20108004A010800AF0008DA
:10101C0000060108005D010800B80108000B020879
:10102C00005D01080006010800AF00080006010879
:10103C00004A010800D20108000B020800930208C4
:10104C00000B020800D20108004A010800C4000885
:10105C0000EE0108004B02080010030800BA020859
:10106C0000EE01080026010800C4000800FFFFC4C0
:10107C0000080000000800F7000800C4000800AFDA
:10108C00000800DC00080000000800F7000800C49D
:10109C00000800F7000800C4000800F7000800AFC3
:1010AC0000080000000800DC000800AF000800C4C5
:1010BC0000080000000800F7000800C4000800AF9A
:1010CC00000800DC00080000000800F7000800C45D
:1010DC00000800F7000800C4000800F7000800AF83
:1010EC0000080000000800DC000800AF0008004BFE
:1010FC0002080000000800EE010800880108004A00
:10110C000108004B020800EE01080088010800EEFF
:10111C00010800000008008801080000000800EE2B
:10112C0001040000000800B80108008801080088CC
:10113C00011000B8011000880108005D010800884A
:10114C0001FCFF5D0108008801080088011000EE19
:10115C000110004B02080093020800BA0202004B77
:10116C0002080000000800EE010800880108004A8F
:10117C000108004B020800EE01080088010800EE8F
:10118C00010800000008008801080000000800EEBB
:10119C0001040000000800B801080088010800885C
:1011AC00011000B8011000880108005D01080088DA
:1011BC0001FCFF5D0108008801080088011000EEA9
:1011CC000110004B02080093020800BA02020093BF
:1011DC000204000B020800B801080072010800B8F4
:1011EC000108000B02100000001000930210000018
:1011FC000010004B0208000000080010030800005B
:10120C000008004B02FCFFEE0108000B0208000076
:10121C00000800B8010800720108002601080072DD
:10122C00010800B8011000000010000B02100000B3
:10123C00001000EE01100000001000EE0110000B79
:10124C00021000EE01100000001000B801100000A8
:10125C00001000EE010200930204000B020800B81B
:10126C0001080072010800B80108000B0210000010
:10127C0000100093021000000010004B0208000048
:10128C0000080010030800000008004B02FCFFEEF1
:10129C00010800B801100000001000B8011000EEA9
:1012AC00011000B8011000000010008801100000AF
:1012BC00001000B801FCFF88010800B80110000004
:1012CC00001000B8011000EE0110000B021000001D
:1012DC000010004B0210000000100093020400E408
:1012EC0002040010030400F7000800C4000800AF5B
:1012FC00000800DC00080000000800F7000800C42B
:10130C00000800F7000800C4000800F7000800AF50
:10131C0000080000000800DC000800AF000800C452
:10132C00000400FFFF000004006E0204001003081C
:10133C000070030800A403080070030800000004F8
:10134C000070030800100308007003080010030865
:10135C0000BA020400000004004B0208000B020853
:10136C00004B020800BA0208000000080010030439
:10137C000000000800000008004B020200000008FA
:10138C0000000004006E0204001003080070030843
:10139C0000A4030800700308000000040070030898
:1013AC0000100308007003080010030800BA0204C0
:1013BC000000000400A403040000000800700310E7
:1013CC00000000100070030400A4030400000008D7
:1013DC0000700310000000100070030400A403044C
:1013EC0000D20104000B0204002A020400260104AE
:1013FC000000000800DC00100000001000DC0008F9
:10140C000026010800000008002601040000000866
:10141C00002601080006010800E9000800DC0004B1
:10142C0000E90001000000080000000400C40004F2
:10143C0000DC000400E900040006010400000008C0
:10144C0000C4000800C400080006010400060104E2
:10145C00000000080006010800E9000800DC000894
:10146C0000C4000400DC00010000000800FFFFC401
:10147C00001000DC001000060110004A011000886A
:10148C00011000B80110000B0210009302100010A4
:10149C00031000700310001704100027051000E063
:1014AC000610002D0810004D0A1000400C02000020
:1014BC000002000B020200E4020200100301000013
:1014CC000002000601040000000800B9000800003A
:1014DC000002000601040000000800B9000800002A
:1014EC00000800B900080000000800B90008000658
:1014FC00010400B90004000B02FCFF930208000079
:10150C00000800E402080000000800700308001046
:10151C0003FCFF93020800000008000B0208000007
:10152C00000800B80108007201080072010800727E
:10153C000108008801020000000800000008007289
:10154C0001080072010800720108008801080000FF
:10155C00000800D201040000000800EE01080000A1
:10156C000004000000020000000100EE011000D297
:10157C00011000EE0110002A0210006E0210002A69
:10158C000210006E021000BA021000E4021000BA41
:10159C00021000E40210003F031000700310003F23
:1015AC0003100070031000DC03100075051000DD43
:1015BC0004100055041000DC031000DD041000556D
:1015CC00041000DC0310007003100055041000DC44
:1015DC000310007003100010031000DC03100070E7
:1015EC0003100010031000BA021000EE01FCFF6E95
:1015FC0002080000000800BA02080000000800DD24
:10160C000408005504FCFFDC03080000000800700F
:10161C00030400BA0208002A021000000010002A7D
:10162C00021000000010002A02100000001000EE52
:10163C0001080000000200EE0110006E021000BA5A
:10164C0002100070031000DC031000700310001077
:10165C000310006E0210007003100010031000BA8B
:10166C000210002A02100010031000BA0210006EC3
:10167C00021000EE011000930202003F030100A4CF
:10168C0003040055040400DC0302003F0304009330
:10169C00020400A40310003F031000E402100093A6
:1016AC000210003F031000E4021000930210004BE4
:1016BC00021000E4021000930210004B0210000B09
:1016CC00021000930210004B0210000B021000D20B
:1016DC0001100093020800E40210003F031000A464
:1016EC000308003F031000E402100093020800E41A
:1016FC000210003F031000A40308003F031000E495
:10170C00021000D20104009F010400D20104004A1F
:10171C000104001704FCFF27050400C8050400E0C1
:10172C000608002006FCFF270504001704040070BF
:10173C00030800E4020800E4020800E402080010B8
:10174C000302007201080088010800720108004AB7
:10175C00010800060102004A01040072010400B8ED
:10176C000108008801FCFF4A010400060104000B7B
:10177C000208006E0208000B0208004B0208000B66
:10178C0002080037010400DC00040037010400DC0F
:10179C000004003701040088010400B80104000BA8
:1017AC00020400EE01FCFF6E020400BA0204003FCA
:1017BC00030800E402FCFF6E020400EE0104009F2B
:1017CC000108005D0108005D0108005D0108007260
:1017DC0001080000000800AF000800AF000800AFCF
:1017EC00000800F7000400AF000800AF000400F789
:1017FC0000FCFF370104005D010400370108002ADA
:10180C0002FCFFEE010400B8010400B90008001549
:10181C000108001501080015010800F70008000078
:10182C00000200EE0110006E021000BA02100070EF
:10183C00031000DC03100070031000100310006E86
:10184C000210007003100010031000BA0210002ADE
:10185C0002100010031000BA0210006E021000EE0D
:10186C00011000930202003F030100A40304005581
:10187C00040400DC0302003F03040093020400A4F0
:10188C000310003F031000E4021000930210003F0D
:10189C00031000E4021000930210004B021000E44D
:1018AC00021000930210004B0210000B0210009368
:1018BC000210004B0210000B021000D2011000931A
:1018CC00020800E40210003F031000A40308003FCC
:1018DC00031000E402100093020800E40210003F21
:1018EC00031000A40308003F031000E4021000934F
:1018FC00020800E40210003F031000A40308003F9C
:10190C00031000E402100093020800E40210003FF0
:10191C00031000A40308003F031000E40210003F72
:10192C00030400E40204003F03040093020400FFDC
:10193C00FF83000400AF000400D0000400A50004E5
:10194C0000AF000400D000040006010400150104DF
:10195C0000E90004004A0104005D010400060104D2
:10196C0000880104009F0104005D0104003701049C
:10197C0000370104005D010200D20104009F010246
:10198C0000880104009F01040000000400FFFF0018
:10199C000010009F0110002A021000930210003F5B
:1019AC000310002A021000930210003F0310005590
:1019BC00041000270510003F0310005504100027E9
:1019CC000510003F03100055041000270510007D82
:1019DC0006100055041000270510007D061000A904
:1019EC00081000270510007D061000A90810004DF6
:1019FC000A10007D061000A90810004D0A1000FA0C
:101A0C000C100000001000FA0C100000001000FF79
:101A1C00FF26010800260108004B02F8FF260110E2
:101A2C00006E020800260110000B020800260110AF
:101A3C00004B020800FFFF20061000C8051000DD57
:101A4C00041000700310003F031000270510007DE8
:101A5C000610002D081000FFFF50443A202573207B
:101A6C002025303258202025640D0A0053797374D8
:101A7C00656D20496E697469616C697A65640D0ADB
:101A8C00004D6F64653A204D616E75616C204F7628
:101A9C006572726964650D0A004D6F64653A204386
:101AAC006F756E74696E670D0A00506C6179696EA2
:101ABC0067207365637265742074756E652E2E2EA7
:041ACC000D0A0000FF
:00000001FF
